:10089F004164635F7365745F4C6F772069732025C4
:1008AF0064210D0A4164635F7365745F486967680B
:1008BF00206973202564210D0A004164635F61750F
:1008CF00746F5F4C6F77206973202564210D0A4187
:1008DF0064635F6175746F5F48696768206973202F
:1008EF002564210D0A004C4F575F50574D2026208D
:1008FF00484947485F50574D20697320307825305D
:10090F0034582C282558295573656C6573732E0D33
:10091F000A00576865656C204865617465722062CE
:10092F007574746F6E20626520496E6163746976A9
:10093F0061746564210D0A00576865656C20486510
:10094F006174657220627574746F6E2062652041E8
:10095F006374697661746564210D0A005768656573
:10096F006C204865617465722053617665205374FD
:10097F006174757320626520496E61637469766175
:10098F00746564210D0A00576865656C20486561C0
:10099F00746572205361766520537461747573208A
:1009AF00626520416374697661746564210D0A0084
:1009BF00576865656C204865617465722061757450
:1009CF006F6F70656E206265204163746976617424
:1009DF006564210D0A004144435F534554206973F8
:1009EF00202564210D0A004144435F6175746F6FC8
:1009FF0070656E5F53455420697320777269746513
:100A0F00202564210D0A4144435F6175746F636C47
:100A1F006F73655F534554206973207772697465EE
:100A2F00202564210D0A004144435F4C6F775F53CB
:100A3F004554206973207772697465202564210DF0
:100A4F000A4144435F486967685F5345542069739F
:100A5F00207772697465202564210D0A0041444393
:100A6F005F484947485F534554207265736574204A
:100A7F00746F202564210D0A004144435F4C4F578A
:100A8F005F53455420726573657420746F2025641D
:100A9F00210D0A004865617465722C5361766542B9
:100AAF0075742C4C4F575F50574D2C484947485F32
:100ABF0050574D206973203078253032582C3078BC
:100ACF00253032582C3078253032582C282558298B
:100ADF005573656C6573730D0A00436F6D6D616EB1
:100AEF00642069732077726F6E67210D0A00506C56
:100AFF006561736520547820307835352030783033
:100B0F003120307831312D2D307831350076616CD0
:100B1F007565204243435F636F64650D0A0057722A
:100B2F006F6E6720436F6D6D616E64206F72204131
:100B3F00646472657373206F7220004352432065A3
:100B4F007272726F72210D0A506C65617365205459
:100B5F0078200030783535203078303120307831BA
:100B6F00312D2D307831352076616C7565204243FB
:090B7F00435F636F64650D0A0019
:100F2A00026400000252000002620000025E000039
:100F3A0002500000022700000122000123000124C0
:040F4A00000125007D
:0D0FF800E4F5C7F5C5F5C675C380F5C42244
:030F9200FF7E04DB
:100F950075C78075F50C75C5018FC4EEFF8FC375D8
:0B0FA500C65A75C6A500AFC2020FF8C7
:100FCC0075C78075F50C75C5028FC4EEFF8FC38D88
:0B0FDC00C275C65A75C6A500020FF8CA
:030FB000FF7E02BF
:100FB30075C78075F50C75C5038FC4EEFF8FC375B8
:090FC300C65A75C6A500020FF81C
:0E0F0500E4FFFE120F13AA06AB077F017E0069
:100F1300E4FDFC120F95EF3395E0FCAD07E42DFDE6
:060F230074033CFEAF0563
:010F290022A5
:080D3200D2CC7B007A00795954
:100D3A00E4FFFE120F95EF120BCE7F01120F959072
:100D4A000001EF120BE07F02120F95900002EF12E2
:100D5A000BE07F03120F95900003EF120BE07F0464
:100D6A00120F95900004EF120BE07F05120F959079
:060D7A000005EF020BE092
:100D8000E4FFFE120FB3120B88FDE4FF120FCC90AC
:100D90000001120BA1FD7F01120FCC900002120B7B
:100DA000A1FD7F02120FCC900003120BA1FD7F0367
:100DB000120FCC900004120BA1FD7F04120FCC90F7
:0B0DC0000005120BA1FD7F05020FCC07
:03002300020E5377
:100E5300C0E0C0D075D000C000309904C299C20A66
:100E630030981CC298C3E560940674809480400354
:100E730075600074292560F8A6990560752605D06C
:060E830000D0D0D0E032E7
:060EB4008B0C8A0D890E73
:100EBA00E4FFFEEEC39405748094805016AB0C05D3
:100ECA000EE50EAA0D7002050D14F9120B886207C1
:030EDA000E80E0A7
:010EDD0022F2
:100F7200759850538EBF538EFE53890F758BFE7535
:100F82008DFFC2ABD28EC209E4F561F560F526226F
:08000300200AFDD20A8F9922A8
:060E89007B007A00792FC6
:100E8F008B0C8A0D890EAB0CAA0DA90E120B886064
:100E9F0013050EE50E7002050D14F9120B88FF12E3
:050EAF00000380E222B7
:0A10120053B2FB43B10475DE222245
:080DCB007B007A00794D7D02E6
:100DD3008D0CE50C44C0F5BC0000E5BC30E5FB53CD
:100DE300BCDFAFBDEFFFADBEEDCF8FF0120C02E560
:100DF3000C44C0F5BC0000E5BC30E5FB53BCDFAFE1
:0C0E0300BDEFFFADBEEDCF8FF0020C0282
:100CE300E4FFA2B333FE24FF92CCE5221460111477
:100CF300601C14603424037035EE603275220122C7
:100D0300EE6007E4F52375220222E4F52222EE7059
:100D1300057F01F522220523C3E523940A748094F9
:0E0D230080400B7F0375220322EE7002F52242
:010D3100229F
:100E0F00E4FD120CE3E52414601324FE602B24038D
:100E1F007031EF6401702CF52575240122EF640108
:100E2F0070067D02F52480190525E525C3941474F9
:100E3F00809480400EE4F52422EF64037005F524BE
:030E4F0022AF05CA
:010E5200227D
:10000E00538E7F5389F0E4F58A758C4CC28DD28C59
:01001E0022BF
:100F4F0053A2EF43A220E4F5D8E5D9541F4408F586
:100F5F00D9E4F5E9F5F975DC4253F43FF5ECF5FC0E
:030F6F00D2DE22AD
:100FE700EF4E700443F40322EFF404F5FC53F4FCD2
:010FF70022D7
:10002600E4F50875CA30F5C9F5B2F5B112000E123D
:100036000F72120F4F121012C2CCC2B3D2ACD2A999
:10004600D28CD2AF7F017E04120F95EF3395E0FE7E
:10005600EF64024E700DFFFE120F138E648F657FE4
:1000660001800D7F027E00120F138E648F657F0361
:100076007E00120F138E528F53D3E56594E8E56424
:100086009403500BC3E5659420E56494035006750C
:100096006403756552C3E5539420E5529403400BFF
:1000A600D3E55394E8E5529403400675520375531D
:1000B600347F047E00120F958F0AEFF46003EF7011
:1000C60003750AE67F057E00120F958F0BEFF4602D
:1000D60003EF7003750BDD7F007E04120F958F080A
:1000E6007F01120F958F09750FFF75100875119F07
:1000F6008564128565138552148553157B007A0035
:10010600792F12059F120E89120F058E148F158AEC
:10011600128B13750FFF7510087511C97B007A00D5
:10012600792F12059F120E89750FFF75100875112C
:10013600F5850A12850B137B007A00792F12059F2D
:10014600120E89E5087BFF70067A09792180047A08
:10015600097947120E8FE50914600F146014240202
:1001660070197BFF7A09796B800E7BFF7A09799685
:1001760080067BFF7A0979BF120E8FE5096401704C
:100186002C120F92EF24EE600E24EE6012242560EE
:1001960016147019E48012856462856563800E8585
:1001A6005262855363800674FFF562F563120DCBC8
:1001B600E50964027015FFFE120F13D3E54E9FE5A5
:1001C6004D9E4007120F0F8E628F63E4F550F55176
:1001D60075C127D3E52694007480948050030204E9
:1001E6003D1526E526600302043DE56064066003CE
:1001F60002043DFFEFC3940574809480500F742968
:100206002FF8E6FE74542FF8A6060F80E7852E4FCA
:10021600E5546455600302041CE55564016003025D
:10022600041CFB7A007954120EB4EF654F6003028A
:10023600041CE55624EE6054146074147003020224
:10024600E71470030203A2240460030203FFD2CC66
:10025600E4F562F563E5572563F563E43562F56217
:10026600E558FEE42563F563EE3562F562750FFF2A
:100276007510097511E5F5128563137B007A00790F
:100286002F12059F120E89C2CC02043A120D328536
:10029600575985585A120D80120F058E148F158ADC
:1002A600128B13750FFF7510097511F602038E1266
:1002B6000D3285575B85585C120D807F027E0012D9
:1002C6000F13AA06AB077F037E00120F138E148F3F
:1002D600158A128B13750FFF75100A7511360203F6
:1002E6008E120D32755970755A5C755B52755C3499
:1002F600E5576004F55D8003850A5DE5586004F501
:100306005E8003850B5E7B007A007959120D807F33
:10031600037E00120F138E128F13750FFF75100ACE
:1003260075116C7A00792F12059F120E897F027E55
:1003360000120F138E128F13750FFF75100A7511A9
:10034600887B007A00792F12059F120E897F007E26
:1003560004120F95EFFD3395E0FC7F01120F95EF28
:10036600FB3395E0FA7F047E00120F95A9077F0400
:10037600120F958F1789168A148B158C128D13758B
:100386000FFF75100A7511A37B007A00792F1205ED
:100396009F120E89C2CC75C76002043AD2CC7F0088
:1003A6007E04120FB3AD577F00120FCCAD587F01FC
:1003B600120FCC7F00120F95EF7BFF70067A09793A
:1003C6002180047A097947120E8F7F017E04120F6D
:1003D60095EF14600F146014240270197BFF7A09DC
:1003E600796B800E7BFF7A09799680067BFF7A0906
:1003F60079BF120E8FC2CC803B7BFF7A0A79E91255
:100406000E8F7BFF7A0A79FD120E8F7BFF7A0B79AE
:100416001C120E8F801E7BFF7A0B792D120E8F7B9E
:10042600FF7A0B794A120E8F7BFF7A0B7962120ED6
:100436008FE4F560E4F560E528452770030201D9ED
:10044600E4F527F528E508600A120E0F7550008FAF
:10045600518005E4F562F563120DCB75C137E551A0
:1004660064014550701E856462856563120F92EFC4
:100476003395E0FEEF64014E700A120FB07D127FD5
:1004860000120FCCE55164024550702185526285F9
:100496005363FF7E04120F95EF3395E0FEEF640180
:1004A6004E700A120FB07D247F00120FCCE5516406
:1004B6000345507026F562F563FF7E04120F95EF33
:1004C6003395E0FEEF64014E700CFF7E02120FB30F
:1004D600E4FDFF120FCCE4F55EF55FD3E56394000F
:1004E600E56294004048E56324FBFFE56234FFFEC5
:1004F600C3E54E9FE54D9E50028033D3E54E95638E
:10050600E54D956240207F007E02120F13C3E54E33
:100516009FE54D9E5008755E00850B5F8015755EE4
:1005260000850A5F800D755E00755FCD8005E4F578
:0D0536005EF55FAF5FAE5E120FE70201D908
:03000B00021005DB
:0D100500758C4C758A007527007528013226
:03000000020C5798
:0C0C5700787FE4F6D8FD758165020C9EE4
:100B8800BB010689828A83E0225002E722BBFE026B
:090B9800E32289828A83E493229E
:100BA100BB010CE58229F582E5833AF583E0225009
:100BB10006E92582F8E622BBFE06E92582F8E22253
:0D0BC100E58229F582E5833AF583E493226D
:100BCE00BB010689828A83F0225002F722BBFE0106
:020BDE00F32200
:100BE000F8BB010DE58229F582E5833AF583E8F04B
:100BF000225006E92582C8F622BBFE05E92582C8F7
:020C0000F222DE
:100C0200BB010A89828A83F0E5F0A3F0225006F73D
:0F0C120009A7F01922BBFE06F3E5F009F319223A
:10054300E51B240FF8E6051B22780C300702780F11
:10055300E475F001120C21020B882000EB7F2ED2F0
:10056300008018EF540F2490D43440D4FF30040B90
:10057300EF24BFB41A0050032461FFE51C60021589
:100583001C051FE51F7002051E30070D780CE4756E
:10059300F001120C21EF020BCE020EDE7403D20720
:1005A3008003E4C207F51B8B0C8A0D890EE4F51C4E
:1005B300F51EF51FE51C60077F2012057E80F5758B
:1005C3001DFFC201C200C202C203C205C206C208A5
:1005D30012054CFF700D3007057F0012058FAF1F0A
:1005E300AE1E22B4255FC2D5C20412054CFF24D02F
:1005F300B40A00501A75F00A781C30D50508B6FF06
:100603000106C6A426F620D5047002D20380D9249D
:10061300CFB41A00EF5004C2E5D20402078FD2010F
:1006230080C6D20080C0D20280BCD2D580BAD205A7
:1006330080B47F2012057E2002077401B51C0040A0
:10064300F1120543FF12057E0205B7D208D20680D8
:1006530095120543FB120543FA120543F94A4B7001
:100663000679607A087BFF20022EE51C602A7E0053
:100673008E82758300120BA160060EEE651D70F06D
:10068300C2D5EBC0E0EAC0E0E9C0E0EE1207D6D085
:10069300E0F9D0E0FAD0E0FB120B88FF60AAEBC0D0
:1006A300E0EAC0E0E9C0E012057ED0E02401F9D021
:1006B300E03400FAD0E0FBE51D0460DCD51DD980F1
:1006C300877BFF7A0779D2D202809C7910800279E6
:1006D30008C206C2088008D2D5790A8004790AC202
:1006E300D5E51D047002F51DE4FAFDFEFF12054376
:1006F300FC7B08200113120543FD7B1030000A1216
:100703000543FE120543FF7B20EC3382D592D5507F
:1007130013C3E43000069FFFE49EFEE42001039D23
:10072300FDE49CFCE4CBF8C201EC700CCFCECDCC45
:10073300E824F8F870F38017C3EF33FFEE33FEEDD0
:1007430033FDEC33FCEB33FB994002FB0FD8E9EBB1
:10075300300105F8D0E0C448B201C0E00AEC4D4EC8
:100763004F78207B0070C2EAB51D0040BCC0E01288
:1007730007D8D0F0D0E0200104C4C0E0C4B201C067
:10078300F0120567D0F0D5F0EB0205B7120C310675
:10079300545306CE5806254C06214206D24F06DA9C
:0F07A3004406DA49063A4306E05506C44606C442
:1007B2004506C44708805006292D062D2E06502BCB
:1007C200063123064E2008692A05E948000006483A
:1007D2003F3F3F00790AA2D5200314300509B91022
:1007E200020404B9080104A2D52006025001042023
:1007F20002689202B51C005034C0E07F2030031919
:100802007F30A20272067205500F12082FC202C276
:1008120006C205C2087F30800F300503E9C0E0122E
:10082200057E300503D0E0F9D0E0B51CCC300517C9
:100832007F30B9100C12057E7F583004077F788014
:1008420003B9080312057E3002057F2D02057E7F63
:10085200202008F87F2B2006F322920280CF286EF8
:10086200756C6C2900D2011205433001F8C201787F
:100872001C30D50108F60205E92D504349581205EE
:10088200432403B405004001E490087B9312056FF2
:0D089200743A12056FD203751C040206CEE5
:100C6300020026E493A3F8E493A34003F68001F281
:100C730008DFF48029E493A3F85407240CC8C33392
:100C8300C4540F4420C8834004F456800146F6DF61
:100C9300E4800B0102040810204080900F2AE47EB8
:100CA300019360BCA3FF543F30E509541FFEE49356
:100CB300A360010ECF54C025E060A840B8E493A31D
:100CC300FAE493A3F8E493A3C8C582C8CAC583CA48
:100CD300F0A3C8C582C8CAC583CADFE9DEE780BE00
:010F4E0000A2
:100C2100FAE6FB0808E6F925F0F618E6CA3AF622D4
:100C3100D083D082F8E4937012740193700DA3A352
:100C410093F8740193F5828883E473740293686066
:060C5100EFA3A3A380DF66
:100EDE00EFB40A07740D120EE9740A309811A8992E
:100EEE00B8130CC2983098FDA899C298B811F63074
:070EFE0099FDC299F599224C
:00000001FF
